{
  "address": "0xF50f6F3FEaE075066e3eb6bAfd601690aC32a244",
  "abi": [
    {
      "inputs": [
        {
          "internalType": "string",
          "name": "_tld",
          "type": "string"
        }
      ],
      "stateMutability": "payable",
      "type": "constructor"
    },
    {
      "inputs": [],
      "name": "AlreadyRegistered",
      "type": "error"
    },
    {
      "inputs": [
        {
          "internalType": "string",
          "name": "name",
          "type": "string"
        }
      ],
      "name": "InvalidName",
      "type": "error"
    },
    {
      "inputs": [],
      "name": "Unauthorized",
      "type": "error"
    },
    {
      "anonymous": false,
      "inputs": [
        {
          "indexed": true,
          "internalType": "address",
          "name": "owner",
          "type": "address"
        },
        {
          "indexed": true,
          "internalType": "address",
          "name": "approved",
          "type": "address"
        },
        {
          "indexed": true,
          "internalType": "uint256",
          "name": "tokenId",
          "type": "uint256"
        }
      ],
      "name": "Approval",
      "type": "event"
    },
    {
      "anonymous": false,
      "inputs": [
        {
          "indexed": true,
          "internalType": "address",
          "name": "owner",
          "type": "address"
        },
        {
          "indexed": true,
          "internalType": "address",
          "name": "operator",
          "type": "address"
        },
        {
          "indexed": false,
          "internalType": "bool",
          "name": "approved",
          "type": "bool"
        }
      ],
      "name": "ApprovalForAll",
      "type": "event"
    },
    {
      "anonymous": false,
      "inputs": [
        {
          "indexed": true,
          "internalType": "address",
          "name": "previousOwner",
          "type": "address"
        },
        {
          "indexed": true,
          "internalType": "address",
          "name": "newOwner",
          "type": "address"
        }
      ],
      "name": "OwnershipTransferred",
      "type": "event"
    },
    {
      "anonymous": false,
      "inputs": [
        {
          "indexed": true,
          "internalType": "address",
          "name": "from",
          "type": "address"
        },
        {
          "indexed": true,
          "internalType": "address",
          "name": "to",
          "type": "address"
        },
        {
          "indexed": true,
          "internalType": "uint256",
          "name": "tokenId",
          "type": "uint256"
        }
      ],
      "name": "Transfer",
      "type": "event"
    },
    {
      "inputs": [
        {
          "internalType": "address",
          "name": "to",
          "type": "address"
        },
        {
          "internalType": "uint256",
          "name": "tokenId",
          "type": "uint256"
        }
      ],
      "name": "approve",
      "outputs": [],
      "stateMutability": "nonpayable",
      "type": "function"
    },
    {
      "inputs": [
        {
          "internalType": "address",
          "name": "owner",
          "type": "address"
        }
      ],
      "name": "balanceOf",
      "outputs": [
        {
          "internalType": "uint256",
          "name": "",
          "type": "uint256"
        }
      ],
      "stateMutability": "view",
      "type": "function"
    },
    {
      "inputs": [
        {
          "internalType": "string",
          "name": "",
          "type": "string"
        }
      ],
      "name": "domains",
      "outputs": [
        {
          "internalType": "address",
          "name": "",
          "type": "address"
        }
      ],
      "stateMutability": "view",
      "type": "function"
    },
    {
      "inputs": [
        {
          "internalType": "string",
          "name": "name",
          "type": "string"
        }
      ],
      "name": "getAddress",
      "outputs": [
        {
          "internalType": "address",
          "name": "",
          "type": "address"
        }
      ],
      "stateMutability": "view",
      "type": "function"
    },
    {
      "inputs": [],
      "name": "getAllNames",
      "outputs": [
        {
          "internalType": "string[]",
          "name": "",
          "type": "string[]"
        }
      ],
      "stateMutability": "view",
      "type": "function"
    },
    {
      "inputs": [
        {
          "internalType": "uint256",
          "name": "tokenId",
          "type": "uint256"
        }
      ],
      "name": "getApproved",
      "outputs": [
        {
          "internalType": "address",
          "name": "",
          "type": "address"
        }
      ],
      "stateMutability": "view",
      "type": "function"
    },
    {
      "inputs": [
        {
          "internalType": "string",
          "name": "name",
          "type": "string"
        }
      ],
      "name": "getRecord",
      "outputs": [
        {
          "internalType": "string",
          "name": "",
          "type": "string"
        }
      ],
      "stateMutability": "view",
      "type": "function"
    },
    {
      "inputs": [
        {
          "internalType": "address",
          "name": "owner",
          "type": "address"
        },
        {
          "internalType": "address",
          "name": "operator",
          "type": "address"
        }
      ],
      "name": "isApprovedForAll",
      "outputs": [
        {
          "internalType": "bool",
          "name": "",
          "type": "bool"
        }
      ],
      "stateMutability": "view",
      "type": "function"
    },
    {
      "inputs": [],
      "name": "name",
      "outputs": [
        {
          "internalType": "string",
          "name": "",
          "type": "string"
        }
      ],
      "stateMutability": "view",
      "type": "function"
    },
    {
      "inputs": [
        {
          "internalType": "uint256",
          "name": "",
          "type": "uint256"
        }
      ],
      "name": "names",
      "outputs": [
        {
          "internalType": "string",
          "name": "",
          "type": "string"
        }
      ],
      "stateMutability": "view",
      "type": "function"
    },
    {
      "inputs": [],
      "name": "owner",
      "outputs": [
        {
          "internalType": "address",
          "name": "",
          "type": "address"
        }
      ],
      "stateMutability": "view",
      "type": "function"
    },
    {
      "inputs": [
        {
          "internalType": "uint256",
          "name": "tokenId",
          "type": "uint256"
        }
      ],
      "name": "ownerOf",
      "outputs": [
        {
          "internalType": "address",
          "name": "",
          "type": "address"
        }
      ],
      "stateMutability": "view",
      "type": "function"
    },
    {
      "inputs": [
        {
          "internalType": "string",
          "name": "name",
          "type": "string"
        }
      ],
      "name": "price",
      "outputs": [
        {
          "internalType": "uint256",
          "name": "",
          "type": "uint256"
        }
      ],
      "stateMutability": "pure",
      "type": "function"
    },
    {
      "inputs": [
        {
          "internalType": "string",
          "name": "",
          "type": "string"
        }
      ],
      "name": "records",
      "outputs": [
        {
          "internalType": "string",
          "name": "",
          "type": "string"
        }
      ],
      "stateMutability": "view",
      "type": "function"
    },
    {
      "inputs": [
        {
          "internalType": "string",
          "name": "name",
          "type": "string"
        }
      ],
      "name": "register",
      "outputs": [],
      "stateMutability": "payable",
      "type": "function"
    },
    {
      "inputs": [],
      "name": "renounceOwnership",
      "outputs": [],
      "stateMutability": "nonpayable",
      "type": "function"
    },
    {
      "inputs": [
        {
          "internalType": "address",
          "name": "from",
          "type": "address"
        },
        {
          "internalType": "address",
          "name": "to",
          "type": "address"
        },
        {
          "internalType": "uint256",
          "name": "tokenId",
          "type": "uint256"
        }
      ],
      "name": "safeTransferFrom",
      "outputs": [],
      "stateMutability": "nonpayable",
      "type": "function"
    },
    {
      "inputs": [
        {
          "internalType": "address",
          "name": "from",
          "type": "address"
        },
        {
          "internalType": "address",
          "name": "to",
          "type": "address"
        },
        {
          "internalType": "uint256",
          "name": "tokenId",
          "type": "uint256"
        },
        {
          "internalType": "bytes",
          "name": "data",
          "type": "bytes"
        }
      ],
      "name": "safeTransferFrom",
      "outputs": [],
      "stateMutability": "nonpayable",
      "type": "function"
    },
    {
      "inputs": [
        {
          "internalType": "address",
          "name": "operator",
          "type": "address"
        },
        {
          "internalType": "bool",
          "name": "approved",
          "type": "bool"
        }
      ],
      "name": "setApprovalForAll",
      "outputs": [],
      "stateMutability": "nonpayable",
      "type": "function"
    },
    {
      "inputs": [
        {
          "internalType": "string",
          "name": "name",
          "type": "string"
        },
        {
          "internalType": "string",
          "name": "record",
          "type": "string"
        }
      ],
      "name": "setRecord",
      "outputs": [],
      "stateMutability": "nonpayable",
      "type": "function"
    },
    {
      "inputs": [
        {
          "internalType": "bytes4",
          "name": "interfaceId",
          "type": "bytes4"
        }
      ],
      "name": "supportsInterface",
      "outputs": [
        {
          "internalType": "bool",
          "name": "",
          "type": "bool"
        }
      ],
      "stateMutability": "view",
      "type": "function"
    },
    {
      "inputs": [],
      "name": "symbol",
      "outputs": [
        {
          "internalType": "string",
          "name": "",
          "type": "string"
        }
      ],
      "stateMutability": "view",
      "type": "function"
    },
    {
      "inputs": [],
      "name": "tld",
      "outputs": [
        {
          "internalType": "string",
          "name": "",
          "type": "string"
        }
      ],
      "stateMutability": "view",
      "type": "function"
    },
    {
      "inputs": [
        {
          "internalType": "uint256",
          "name": "tokenId",
          "type": "uint256"
        }
      ],
      "name": "tokenURI",
      "outputs": [
        {
          "internalType": "string",
          "name": "",
          "type": "string"
        }
      ],
      "stateMutability": "view",
      "type": "function"
    },
    {
      "inputs": [
        {
          "internalType": "address",
          "name": "from",
          "type": "address"
        },
        {
          "internalType": "address",
          "name": "to",
          "type": "address"
        },
        {
          "internalType": "uint256",
          "name": "tokenId",
          "type": "uint256"
        }
      ],
      "name": "transferFrom",
      "outputs": [],
      "stateMutability": "nonpayable",
      "type": "function"
    },
    {
      "inputs": [
        {
          "internalType": "address",
          "name": "newOwner",
          "type": "address"
        }
      ],
      "name": "transferOwnership",
      "outputs": [],
      "stateMutability": "nonpayable",
      "type": "function"
    },
    {
      "inputs": [
        {
          "internalType": "string",
          "name": "name",
          "type": "string"
        }
      ],
      "name": "valid",
      "outputs": [
        {
          "internalType": "bool",
          "name": "",
          "type": "bool"
        }
      ],
      "stateMutability": "pure",
      "type": "function"
    },
    {
      "inputs": [],
      "name": "withdraw",
      "outputs": [],
      "stateMutability": "nonpayable",
      "type": "function"
    }
  ],
  "transactionHash": "0xf452be8140c9e470efcdba092d9c857cb91455d50e6ff0cd16311b9da3bf7913",
  "args": [
    "wicked"
  ],
  "numDeployments": 2,
  "solcInputHash": "9974ae21eab6b14693fe2a3d69be8f26",
  "bytecode": "0x6080604052604051806108a0016040528061086b81526020016200577961086b9139600a9081620000319190620005cc565b506040518060400160405280600d81526020017f3c2f746578743e3c2f7376673e00000000000000000000000000000000000000815250600b9081620000789190620005cc565b5060405162005fe438038062005fe483398181016040528101906200009e919062000817565b6040518060400160405280601381526020017f5769636b6564204e616d652053657276696365000000000000000000000000008152506040518060400160405280600381526020017f574e53000000000000000000000000000000000000000000000000000000000081525081600090816200011b9190620005cc565b5080600190816200012d9190620005cc565b5050506200015062000144620001b560201b60201c565b620001bd60201b60201c565b8060089081620001619190620005cc565b50620001ae6040518060400160405280601881526020017f2573206e616d652073657276696365206465706c6f7965640000000000000000815250826200028360201b62001c2f1760201c565b50620008f5565b600033905090565b6000600760009054906101000a900473ffffffffffffffffffffffffffffffffffffffff16905081600760006101000a81548173ffffffffffffffffffffffffffffffffffffffff021916908373ffffffffffffffffffffffffffffffffffffffff1602179055508173ffffffffffffffffffffffffffffffffffffffff168173ffffffffffffffffffffffffffffffffffffffff167f8be0079c531659141344cd1fd0a4f28419497f9722a3daafe3b4186f6b6457e060405160405180910390a35050565b6200032582826040516024016200029c929190620008ba565b6040516020818303038152906040527f4b5c4277000000000000000000000000000000000000000000000000000000007bffffffffffffffffffffffffffffffffffffffffffffffffffffffff19166020820180517bffffffffffffffffffffffffffffffffffffffffffffffffffffffff83818316178352505050506200032960201b60201c565b5050565b60008151905060006a636f6e736f6c652e6c6f679050602083016000808483855afa5050505050565b600081519050919050565b7f4e487b7100000000000000000000000000000000000000000000000000000000600052604160045260246000fd5b7f4e487b7100000000000000000000000000000000000000000000000000000000600052602260045260246000fd5b60006002820490506001821680620003d457607f821691505b602082108103620003ea57620003e96200038c565b5b50919050565b60008190508160005260206000209050919050565b60006020601f8301049050919050565b600082821b905092915050565b600060088302620004547fffffffffffffffffffffffffffffffffffffffffffffffffffffffffffffffff8262000415565b62000460868362000415565b95508019841693508086168417925050509392505050565b6000819050919050565b6000819050919050565b6000620004ad620004a7620004a18462000478565b62000482565b62000478565b9050919050565b6000819050919050565b620004c9836200048c565b620004e1620004d882620004b4565b84845462000422565b825550505050565b600090565b620004f8620004e9565b62000505818484620004be565b505050565b5b818110156200052d5762000521600082620004ee565b6001810190506200050b565b5050565b601f8211156200057c576200054681620003f0565b620005518462000405565b8101602085101562000561578190505b62000579620005708562000405565b8301826200050a565b50505b505050565b600082821c905092915050565b6000620005a16000198460080262000581565b1980831691505092915050565b6000620005bc83836200058e565b9150826002028217905092915050565b620005d78262000352565b67ffffffffffffffff811115620005f357620005f26200035d565b5b620005ff8254620003bb565b6200060c82828562000531565b600060209050601f8311600181146200064457600084156200062f578287015190505b6200063b8582620005ae565b865550620006ab565b601f1984166200065486620003f0565b60005b828110156200067e5784890151825560018201915060208501945060208101905062000657565b868310156200069e57848901516200069a601f8916826200058e565b8355505b6001600288020188555050505b505050505050565b6000604051905090565b600080fd5b600080fd5b600080fd5b600080fd5b6000601f19601f8301169050919050565b620006ed82620006d1565b810181811067ffffffffffffffff821117156200070f576200070e6200035d565b5b80604052505050565b600062000724620006b3565b9050620007328282620006e2565b919050565b600067ffffffffffffffff8211156200075557620007546200035d565b5b6200076082620006d1565b9050602081019050919050565b60005b838110156200078d57808201518184015260208101905062000770565b60008484015250505050565b6000620007b0620007aa8462000737565b62000718565b905082815260208101848484011115620007cf57620007ce620006cc565b5b620007dc8482856200076d565b509392505050565b600082601f830112620007fc57620007fb620006c7565b5b81516200080e84826020860162000799565b91505092915050565b60006020828403121562000830576200082f620006bd565b5b600082015167ffffffffffffffff811115620008515762000850620006c2565b5b6200085f84828501620007e4565b91505092915050565b600082825260208201905092915050565b6000620008868262000352565b62000892818562000868565b9350620008a48185602086016200076d565b620008af81620006d1565b840191505092915050565b60006040820190508181036000830152620008d6818562000879565b90508181036020830152620008ec818462000879565b90509392505050565b614e7480620009056000396000f3fe6080604052600436106101b75760003560e01c8063715018a6116100ec578063c1880a981161008a578063f2c298be11610064578063f2c298be14610668578063f2fde38b14610684578063fb825e5f146106ad578063fe2c6198146106d8576101b7565b8063c1880a98146105c5578063c87b56dd146105ee578063e985e9c51461062b576101b7565b80639791c097116100c65780639791c097146104f9578063a22cb46514610536578063b88d4fde1461055f578063bf40fac114610588576101b7565b8063715018a61461048c5780638da5cb5b146104a357806395d89b41146104ce576101b7565b80632d551432116101595780634622ab03116101335780634622ab0314610398578063541e771d146103d55780636352211e1461041257806370a082311461044f576101b7565b80632d5514321461032d5780633ccfd60b1461035857806342842e0e1461036f576101b7565b8063095ea7b311610195578063095ea7b31461026157806311dd88451461028a57806323b872dd146102c757806326449235146102f0576101b7565b806301ffc9a7146101bc57806306fdde03146101f9578063081812fc14610224575b600080fd5b3480156101c857600080fd5b506101e360048036038101906101de91906130b1565b610715565b6040516101f091906130f9565b60405180910390f35b34801561020557600080fd5b5061020e6107f7565b60405161021b91906131a4565b60405180910390f35b34801561023057600080fd5b5061024b600480360381019061024691906131fc565b610889565b604051610258919061326a565b60405180910390f35b34801561026d57600080fd5b50610288600480360381019061028391906132b1565b6108cf565b005b34801561029657600080fd5b506102b160048036038101906102ac9190613356565b6109e6565b6040516102be91906131a4565b60405180910390f35b3480156102d357600080fd5b506102ee60048036038101906102e991906133a3565b610a99565b005b3480156102fc57600080fd5b5061031760048036038101906103129190613526565b610af9565b604051610324919061326a565b60405180910390f35b34801561033957600080fd5b50610342610b42565b60405161034f91906131a4565b60405180910390f35b34801561036457600080fd5b5061036d610bd0565b005b34801561037b57600080fd5b50610396600480360381019061039191906133a3565b610c8d565b005b3480156103a457600080fd5b506103bf60048036038101906103ba91906131fc565b610cad565b6040516103cc91906131a4565b60405180910390f35b3480156103e157600080fd5b506103fc60048036038101906103f79190613526565b610d4d565b60405161040991906131a4565b60405180910390f35b34801561041e57600080fd5b50610439600480360381019061043491906131fc565b610e03565b604051610446919061326a565b60405180910390f35b34801561045b57600080fd5b506104766004803603810190610471919061356f565b610eb4565b60405161048391906135ab565b60405180910390f35b34801561049857600080fd5b506104a1610f6b565b005b3480156104af57600080fd5b506104b8610f7f565b6040516104c5919061326a565b60405180910390f35b3480156104da57600080fd5b506104e3610fa9565b6040516104f091906131a4565b60405180910390f35b34801561050557600080fd5b50610520600480360381019061051b9190613356565b61103b565b60405161052d91906130f9565b60405180910390f35b34801561054257600080fd5b5061055d600480360381019061055891906135f2565b6110ef565b005b34801561056b57600080fd5b50610586600480360381019061058191906136d3565b611105565b005b34801561059457600080fd5b506105af60048036038101906105aa9190613356565b611167565b6040516105bc919061326a565b60405180910390f35b3480156105d157600080fd5b506105ec60048036038101906105e79190613756565b6111b2565b005b3480156105fa57600080fd5b50610615600480360381019061061091906131fc565b61128d565b60405161062291906131a4565b60405180910390f35b34801561063757600080fd5b50610652600480360381019061064d91906137d7565b61139f565b60405161065f91906130f9565b60405180910390f35b610682600480360381019061067d9190613356565b611433565b005b34801561069057600080fd5b506106ab60048036038101906106a6919061356f565b61192a565b005b3480156106b957600080fd5b506106c26119ad565b6040516106cf9190613923565b60405180910390f35b3480156106e457600080fd5b506106ff60048036038101906106fa9190613356565b611b8b565b60405161070c91906135ab565b60405180910390f35b60007f80ac58cd000000000000000000000000000000000000000000000000000000007bffffffffffffffffffffffffffffffffffffffffffffffffffffffff1916827bffffffffffffffffffffffffffffffffffffffffffffffffffffffff191614806107e057507f5b5e139f000000000000000000000000000000000000000000000000000000007bffffffffffffffffffffffffffffffffffffffffffffffffffffffff1916827bffffffffffffffffffffffffffffffffffffffffffffffffffffffff1916145b806107f057506107ef82611ccb565b5b9050919050565b60606000805461080690613974565b80601f016020809104026020016040519081016040528092919081815260200182805461083290613974565b801561087f5780601f106108545761010080835404028352916020019161087f565b820191906000526020600020905b81548152906001019060200180831161086257829003601f168201915b5050505050905090565b600061089482611d35565b6004600083815260200190815260200160002060009054906101000a900473ffffffffffffffffffffffffffffffffffffffff169050919050565b60006108da82610e03565b90508073ffffffffffffffffffffffffffffffffffffffff168373ffffffffffffffffffffffffffffffffffffffff160361094a576040517f08c379a000000000000000000000000000000000000000000000000000000000815260040161094190613a17565b60405180910390fd5b8073ffffffffffffffffffffffffffffffffffffffff16610969611d80565b73ffffffffffffffffffffffffffffffffffffffff161480610998575061099781610992611d80565b61139f565b5b6109d7576040517f08c379a00000000000000000000000000000000000000000000000000000000081526004016109ce90613aa9565b60405180910390fd5b6109e18383611d88565b505050565b6060600e83836040516109fa929190613af9565b90815260200160405180910390208054610a1390613974565b80601f0160208091040260200160405190810160405280929190818152602001828054610a3f90613974565b8015610a8c5780601f10610a6157610100808354040283529160200191610a8c565b820191906000526020600020905b815481529060010190602001808311610a6f57829003601f168201915b5050505050905092915050565b610aaa610aa4611d80565b82611e41565b610ae9576040517f08c379a0000000000000000000000000000000000000000000000000000000008152600401610ae090613b84565b60405180910390fd5b610af4838383611ed6565b505050565b600c818051602081018201805184825260208301602085012081835280955050505050506000915054906101000a900473ffffffffffffffffffffffffffffffffffffffff1681565b60088054610b4f90613974565b80601f0160208091040260200160405190810160405280929190818152602001828054610b7b90613974565b8015610bc85780601f10610b9d57610100808354040283529160200191610bc8565b820191906000526020600020905b815481529060010190602001808311610bab57829003601f168201915b505050505081565b610bd861213c565b600047905060003373ffffffffffffffffffffffffffffffffffffffff1682604051610c0390613bd5565b60006040518083038185875af1925050503d8060008114610c40576040519150601f19603f3d011682016040523d82523d6000602084013e610c45565b606091505b5050905080610c89576040517f08c379a0000000000000000000000000000000000000000000000000000000008152600401610c8090613c36565b60405180910390fd5b5050565b610ca883838360405180602001604052806000815250611105565b505050565b600d6020528060005260406000206000915090508054610ccc90613974565b80601f0160208091040260200160405190810160405280929190818152602001828054610cf890613974565b8015610d455780601f10610d1a57610100808354040283529160200191610d45565b820191906000526020600020905b815481529060010190602001808311610d2857829003601f168201915b505050505081565b600e818051602081018201805184825260208301602085012081835280955050505050506000915090508054610d8290613974565b80601f0160208091040260200160405190810160405280929190818152602001828054610dae90613974565b8015610dfb5780601f10610dd057610100808354040283529160200191610dfb565b820191906000526020600020905b815481529060010190602001808311610dde57829003601f168201915b505050505081565b6000806002600084815260200190815260200160002060009054906101000a900473ffffffffffffffffffffffffffffffffffffffff169050600073ffffffffffffffffffffffffffffffffffffffff168173ffffffffffffffffffffffffffffffffffffffff1603610eab576040517f08c379a0000000000000000000000000000000000000000000000000000000008152600401610ea290613ca2565b60405180910390fd5b80915050919050565b60008073ffffffffffffffffffffffffffffffffffffffff168273ffffffffffffffffffffffffffffffffffffffff1603610f24576040517f08c379a0000000000000000000000000000000000000000000000000000000008152600401610f1b90613d34565b60405180910390fd5b600360008373ffffffffffffffffffffffffffffffffffffffff1673ffffffffffffffffffffffffffffffffffffffff168152602001908152602001600020549050919050565b610f7361213c565b610f7d60006121ba565b565b6000600760009054906101000a900473ffffffffffffffffffffffffffffffffffffffff16905090565b606060018054610fb890613974565b80601f0160208091040260200160405190810160405280929190818152602001828054610fe490613974565b80156110315780601f1061100657610100808354040283529160200191611031565b820191906000526020600020905b81548152906001019060200180831161101457829003601f168201915b5050505050905090565b6000600361108c84848080601f016020809104026020016040519081016040528093929190818152602001838380828437600081840152601f19601f82011690508083019250505050505050612280565b101580156110e75750600a6110e484848080601f016020809104026020016040519081016040528093929190818152602001838380828437600081840152601f19601f82011690508083019250505050505050612280565b11155b905092915050565b6111016110fa611d80565b8383612435565b5050565b611116611110611d80565b83611e41565b611155576040517f08c379a000000000000000000000000000000000000000000000000000000000815260040161114c90613b84565b60405180910390fd5b611161848484846125a1565b50505050565b6000600c838360405161117b929190613af9565b908152602001604051809103902060009054906101000a900473ffffffffffffffffffffffffffffffffffffffff16905092915050565b600c84846040516111c4929190613af9565b908152602001604051809103902060009054906101000a900473ffffffffffffffffffffffffffffffffffffffff1673ffffffffffffffffffffffffffffffffffffffff163373ffffffffffffffffffffffffffffffffffffffff1614611257576040517f82b4290000000000000000000000000000000000000000000000000000000000815260040160405180910390fd5b8181600e868660405161126b929190613af9565b90815260200160405180910390209182611286929190613f0b565b5050505050565b606061129882611d35565b60006006600084815260200190815260200160002080546112b890613974565b80601f01602080910402602001604051908101604052809291908181526020018280546112e490613974565b80156113315780601f1061130657610100808354040283529160200191611331565b820191906000526020600020905b81548152906001019060200180831161131457829003601f168201915b5050505050905060006113426125fd565b9050600081510361135757819250505061139a565b60008251111561138c57808260405160200161137492919061400c565b6040516020818303038152906040529250505061139a565b61139584612614565b925050505b919050565b6000600560008473ffffffffffffffffffffffffffffffffffffffff1673ffffffffffffffffffffffffffffffffffffffff16815260200190815260200160002060008373ffffffffffffffffffffffffffffffffffffffff1673ffffffffffffffffffffffffffffffffffffffff16815260200190815260200160002060009054906101000a900460ff16905092915050565b600073ffffffffffffffffffffffffffffffffffffffff16600c838360405161145d929190613af9565b908152602001604051809103902060009054906101000a900473ffffffffffffffffffffffffffffffffffffffff1673ffffffffffffffffffffffffffffffffffffffff16146114ac57600080fd5b600073ffffffffffffffffffffffffffffffffffffffff16600c83836040516114d6929190613af9565b908152602001604051809103902060009054906101000a900473ffffffffffffffffffffffffffffffffffffffff1673ffffffffffffffffffffffffffffffffffffffff1614611552576040517f3a81d6fc00000000000000000000000000000000000000000000000000000000815260040160405180910390fd5b61155c828261103b565b61159f5781816040517f7f19f48d00000000000000000000000000000000000000000000000000000000815260040161159692919061405d565b60405180910390fd5b60006115ab8383611b8b565b9050803410156115f0576040517f08c379a00000000000000000000000000000000000000000000000000000000081526004016115e7906140cd565b60405180910390fd5b600083836008604051602001611608939291906141bc565b60405160208183030381529060405290506000600a82600b604051602001611632939291906141ed565b6040516020818303038152906040529050600061164f600961267c565b905060006116a087878080601f016020809104026020016040519081016040528093929190818152602001838380828437600081840152601f19601f82011690508083019250505050505050612280565b905060006116ad8261268a565b90506117a1604051806060016040528060318152602001614d956031913989898080601f016020809104026020016040519081016040528093929190818152602001838380828437600081840152601f19601f820116905080830192505050505050506008805461171d90613974565b80601f016020809104026020016040519081016040528092919081815260200182805461174990613974565b80156117965780601f1061176b57610100808354040283529160200191611796565b820191906000526020600020905b81548152906001019060200180831161177957829003601f168201915b5050505050866127ea565b60006117d7866117b08761288c565b846040516020016117c39392919061439a565b60405160208183030381529060405261288c565b90506000816040516020016117ec9190614443565b604051602081830303815290604052905061181e604051806060016040528060398152602001614d5c603991396129ef565b61185d6040518060400160405280600e81526020017f46696e616c20746f6b656e55524900000000000000000000000000000000000081525082611c2f565b61187e604051806060016040528060398152602001614dc6603991396129ef565b33600c8b8b604051611891929190613af9565b908152602001604051809103902060006101000a81548173ffffffffffffffffffffffffffffffffffffffff021916908373ffffffffffffffffffffffffffffffffffffffff1602179055508989600d600088815260200190815260200160002091826118ff929190613f0b565b5061190a6009612a88565b6119143386612a9e565b61191e8582612abc565b50505050505050505050565b61193261213c565b600073ffffffffffffffffffffffffffffffffffffffff168173ffffffffffffffffffffffffffffffffffffffff16036119a1576040517f08c379a0000000000000000000000000000000000000000000000000000000008152600401611998906144d7565b60405180910390fd5b6119aa816121ba565b50565b60606119ed6040518060400160405280601f81526020017f47657474696e6720616c6c206e616d65732066726f6d20636f6e7472616374008152506129ef565b60006119f9600961267c565b67ffffffffffffffff811115611a1257611a116133fb565b5b604051908082528060200260200182016040528015611a4557816020015b6060815260200190600190039081611a305790505b50905060005b611a55600961267c565b811015611b8357600d60008281526020019081526020016000208054611a7a90613974565b80601f0160208091040260200160405190810160405280929190818152602001828054611aa690613974565b8015611af35780601f10611ac857610100808354040283529160200191611af3565b820191906000526020600020905b815481529060010190602001808311611ad657829003601f168201915b5050505050828281518110611b0b57611b0a6144f7565b5b6020026020010181905250611b706040518060400160405280601781526020017f4e616d6520666f7220746f6b656e20256420697320257300000000000000000081525082848481518110611b6357611b626144f7565b5b6020026020010151612b29565b8080611b7b90614555565b915050611a4b565b508091505090565b600080611bdb84848080601f016020809104026020016040519081016040528093929190818152602001838380828437600081840152601f19601f82011690508083019250505050505050612280565b905060008111611bea57600080fd5b60038103611c03576706f05b59d3b20000915050611c29565b60048103611c1c57670429d069189e0000915050611c29565b67016345785d8a00009150505b92915050565b611cc78282604051602401611c4592919061459d565b6040516020818303038152906040527f4b5c4277000000000000000000000000000000000000000000000000000000007bffffffffffffffffffffffffffffffffffffffffffffffffffffffff19166020820180517bffffffffffffffffffffffffffffffffffffffffffffffffffffffff8381831617835250505050612bc8565b5050565b60007f01ffc9a7000000000000000000000000000000000000000000000000000000007bffffffffffffffffffffffffffffffffffffffffffffffffffffffff1916827bffffffffffffffffffffffffffffffffffffffffffffffffffffffff1916149050919050565b611d3e81612bf1565b611d7d576040517f08c379a0000000000000000000000000000000000000000000000000000000008152600401611d7490613ca2565b60405180910390fd5b50565b600033905090565b816004600083815260200190815260200160002060006101000a81548173ffffffffffffffffffffffffffffffffffffffff021916908373ffffffffffffffffffffffffffffffffffffffff160217905550808273ffffffffffffffffffffffffffffffffffffffff16611dfb83610e03565b73ffffffffffffffffffffffffffffffffffffffff167f8c5be1e5ebec7d5bd14f71427d1e84f3dd0314c0f7b2291e5b200ac8c7c3b92560405160405180910390a45050565b600080611e4d83610e03565b90508073ffffffffffffffffffffffffffffffffffffffff168473ffffffffffffffffffffffffffffffffffffffff161480611e8f5750611e8e818561139f565b5b80611ecd57508373ffffffffffffffffffffffffffffffffffffffff16611eb584610889565b73ffffffffffffffffffffffffffffffffffffffff16145b91505092915050565b8273ffffffffffffffffffffffffffffffffffffffff16611ef682610e03565b73ffffffffffffffffffffffffffffffffffffffff1614611f4c576040517f08c379a0000000000000000000000000000000000000000000000000000000008152600401611f4390614646565b60405180910390fd5b600073ffffffffffffffffffffffffffffffffffffffff168273ffffffffffffffffffffffffffffffffffffffff1603611fbb576040517f08c379a0000000000000000000000000000000000000000000000000000000008152600401611fb2906146d8565b60405180910390fd5b611fc6838383612c5d565b611fd1600082611d88565b6001600360008573ffffffffffffffffffffffffffffffffffffffff1673ffffffffffffffffffffffffffffffffffffffff168152602001908152602001600020600082825461202191906146f8565b925050819055506001600360008473ffffffffffffffffffffffffffffffffffffffff1673ffffffffffffffffffffffffffffffffffffffff1681526020019081526020016000206000828254612078919061472c565b92505081905550816002600083815260200190815260200160002060006101000a81548173ffffffffffffffffffffffffffffffffffffffff021916908373ffffffffffffffffffffffffffffffffffffffff160217905550808273ffffffffffffffffffffffffffffffffffffffff168473ffffffffffffffffffffffffffffffffffffffff167fddf252ad1be2c89b69c2b068fc378daa952ba7f163c4a11628f55a4df523b3ef60405160405180910390a4612137838383612c62565b505050565b612144611d80565b73ffffffffffffffffffffffffffffffffffffffff16612162610f7f565b73ffffffffffffffffffffffffffffffffffffffff16146121b8576040517f08c379a00000000000000000000000000000000000000000000000000000000081526004016121af906147ac565b60405180910390fd5b565b6000600760009054906101000a900473ffffffffffffffffffffffffffffffffffffffff16905081600760006101000a81548173ffffffffffffffffffffffffffffffffffffffff021916908373ffffffffffffffffffffffffffffffffffffffff1602179055508173ffffffffffffffffffffffffffffffffffffffff168173ffffffffffffffffffffffffffffffffffffffff167f8be0079c531659141344cd1fd0a4f28419497f9722a3daafe3b4186f6b6457e060405160405180910390a35050565b60008060008084519050600092505b8082101561242a5760008583815181106122ac576122ab6144f7565b5b602001015160f81c60f81b9050608060f81b817effffffffffffffffffffffffffffffffffffffffffffffffffffffffffffff191610156122fb576001836122f4919061472c565b9250612416565b60e060f81b817effffffffffffffffffffffffffffffffffffffffffffffffffffffffffffff1916101561233d57600283612336919061472c565b9250612415565b60f060f81b817effffffffffffffffffffffffffffffffffffffffffffffffffffffffffffff1916101561237f57600383612378919061472c565b9250612414565b60f8801b817effffffffffffffffffffffffffffffffffffffffffffffffffffffffffffff191610156123c0576004836123b9919061472c565b9250612413565b60fc60f81b817effffffffffffffffffffffffffffffffffffffffffffffffffffffffffffff19161015612402576005836123fb919061472c565b9250612412565b60068361240f919061472c565b92505b5b5b5b5b50828061242290614555565b93505061228f565b829350505050919050565b8173ffffffffffffffffffffffffffffffffffffffff168373ffffffffffffffffffffffffffffffffffffffff16036124a3576040517f08c379a000000000000000000000000000000000000000000000000000000000815260040161249a90614818565b60405180910390fd5b80600560008573ffffffffffffffffffffffffffffffffffffffff1673ffffffffffffffffffffffffffffffffffffffff16815260200190815260200160002060008473ffffffffffffffffffffffffffffffffffffffff1673ffffffffffffffffffffffffffffffffffffffff16815260200190815260200160002060006101000a81548160ff0219169083151502179055508173ffffffffffffffffffffffffffffffffffffffff168373ffffffffffffffffffffffffffffffffffffffff167f17307eab39ab6107e8899845ad3d59bd9653f200f220920489ca2b5937696c318360405161259491906130f9565b60405180910390a3505050565b6125ac848484611ed6565b6125b884848484612c67565b6125f7576040517f08c379a00000000000000000000000000000000000000000000000000000000081526004016125ee906148aa565b60405180910390fd5b50505050565b606060405180602001604052806000815250905090565b606061261f82611d35565b60006126296125fd565b905060008151116126495760405180602001604052806000815250612674565b806126538461268a565b60405160200161266492919061400c565b6040516020818303038152906040525b915050919050565b600081600001549050919050565b6060600082036126d1576040518060400160405280600181526020017f300000000000000000000000000000000000000000000000000000000000000081525090506127e5565b600082905060005b600082146127035780806126ec90614555565b915050600a826126fc91906148f9565b91506126d9565b60008167ffffffffffffffff81111561271f5761271e6133fb565b5b6040519080825280601f01601f1916602001820160405280156127515781602001600182028036833780820191505090505b5090505b600085146127de5760018261276a91906146f8565b9150600a85612779919061492a565b6030612785919061472c565b60f81b81838151811061279b5761279a6144f7565b5b60200101907effffffffffffffffffffffffffffffffffffffffffffffffffffffffffffff1916908160001a905350600a856127d791906148f9565b9450612755565b8093505050505b919050565b61288684848484604051602401612804949392919061495b565b6040516020818303038152906040527f8eafb02b000000000000000000000000000000000000000000000000000000007bffffffffffffffffffffffffffffffffffffffffffffffffffffffff19166020820180517bffffffffffffffffffffffffffffffffffffffffffffffffffffffff8381831617835250505050612bc8565b50505050565b606060008251036128ae576040518060200160405280600081525090506129ea565b6000604051806060016040528060408152602001614dff60409139905060006003600285516128dd919061472c565b6128e791906148f9565b60046128f391906149b5565b67ffffffffffffffff81111561290c5761290b6133fb565b5b6040519080825280601f01601f19166020018201604052801561293e5781602001600182028036833780820191505090505b509050600182016020820185865187015b808210156129aa576003820191508151603f8160121c168501518453600184019350603f81600c1c168501518453600184019350603f8160061c168501518453600184019350603f811685015184536001840193505061294f565b50506003865106600181146129c657600281146129d9576129e1565b603d6001830353603d60028303536129e1565b603d60018303535b50505080925050505b919050565b612a8581604051602401612a0391906131a4565b6040516020818303038152906040527f41304fac000000000000000000000000000000000000000000000000000000007bffffffffffffffffffffffffffffffffffffffffffffffffffffffff19166020820180517bffffffffffffffffffffffffffffffffffffffffffffffffffffffff8381831617835250505050612bc8565b50565b6001816000016000828254019250508190555050565b612ab8828260405180602001604052806000815250612dee565b5050565b612ac582612bf1565b612b04576040517f08c379a0000000000000000000000000000000000000000000000000000000008152600401612afb90614a69565b60405180910390fd5b80600660008481526020019081526020016000209081612b249190614a89565b505050565b612bc3838383604051602401612b4193929190614b5b565b6040516020818303038152906040527f5970e089000000000000000000000000000000000000000000000000000000007bffffffffffffffffffffffffffffffffffffffffffffffffffffffff19166020820180517bffffffffffffffffffffffffffffffffffffffffffffffffffffffff8381831617835250505050612bc8565b505050565b60008151905060006a636f6e736f6c652e6c6f679050602083016000808483855afa5050505050565b60008073ffffffffffffffffffffffffffffffffffffffff166002600084815260200190815260200160002060009054906101000a900473ffffffffffffffffffffffffffffffffffffffff1673ffffffffffffffffffffffffffffffffffffffff1614159050919050565b505050565b505050565b6000612c888473ffffffffffffffffffffffffffffffffffffffff16612e49565b15612de1578373ffffffffffffffffffffffffffffffffffffffff1663150b7a02612cb1611d80565b8786866040518563ffffffff1660e01b8152600401612cd39493929190614bf5565b6020604051808303816000875af1925050508015612d0f57506040513d601f19601f82011682018060405250810190612d0c9190614c56565b60015b612d91573d8060008114612d3f576040519150601f19603f3d011682016040523d82523d6000602084013e612d44565b606091505b506000815103612d89576040517f08c379a0000000000000000000000000000000000000000000000000000000008152600401612d80906148aa565b60405180910390fd5b805181602001fd5b63150b7a0260e01b7bffffffffffffffffffffffffffffffffffffffffffffffffffffffff1916817bffffffffffffffffffffffffffffffffffffffffffffffffffffffff191614915050612de6565b600190505b949350505050565b612df88383612e6c565b612e056000848484612c67565b612e44576040517f08c379a0000000000000000000000000000000000000000000000000000000008152600401612e3b906148aa565b60405180910390fd5b505050565b6000808273ffffffffffffffffffffffffffffffffffffffff163b119050919050565b600073ffffffffffffffffffffffffffffffffffffffff168273ffffffffffffffffffffffffffffffffffffffff1603612edb576040517f08c379a0000000000000000000000000000000000000000000000000000000008152600401612ed290614ccf565b60405180910390fd5b612ee481612bf1565b15612f24576040517f08c379a0000000000000000000000000000000000000000000000000000000008152600401612f1b90614d3b565b60405180910390fd5b612f3060008383612c5d565b6001600360008473ffffffffffffffffffffffffffffffffffffffff1673ffffffffffffffffffffffffffffffffffffffff1681526020019081526020016000206000828254612f80919061472c565b92505081905550816002600083815260200190815260200160002060006101000a81548173ffffffffffffffffffffffffffffffffffffffff021916908373ffffffffffffffffffffffffffffffffffffffff160217905550808273ffffffffffffffffffffffffffffffffffffffff16600073ffffffffffffffffffffffffffffffffffffffff167fddf252ad1be2c89b69c2b068fc378daa952ba7f163c4a11628f55a4df523b3ef60405160405180910390a461304160008383612c62565b5050565b6000604051905090565b600080fd5b600080fd5b60007fffffffff0000000000000000000000000000000000000000000000000000000082169050919050565b61308e81613059565b811461309957600080fd5b50565b6000813590506130ab81613085565b92915050565b6000602082840312156130c7576130c661304f565b5b60006130d58482850161309c565b91505092915050565b60008115159050919050565b6130f3816130de565b82525050565b600060208201905061310e60008301846130ea565b92915050565b600081519050919050565b600082825260208201905092915050565b60005b8381101561314e578082015181840152602081019050613133565b60008484015250505050565b6000601f19601f8301169050919050565b600061317682613114565b613180818561311f565b9350613190818560208601613130565b6131998161315a565b840191505092915050565b600060208201905081810360008301526131be818461316b565b905092915050565b6000819050919050565b6131d9816131c6565b81146131e457600080fd5b50565b6000813590506131f6816131d0565b92915050565b6000602082840312156132125761321161304f565b5b6000613220848285016131e7565b91505092915050565b600073ffffffffffffffffffffffffffffffffffffffff82169050919050565b600061325482613229565b9050919050565b61326481613249565b82525050565b600060208201905061327f600083018461325b565b92915050565b61328e81613249565b811461329957600080fd5b50565b6000813590506132ab81613285565b92915050565b600080604083850312156132c8576132c761304f565b5b60006132d68582860161329c565b92505060206132e7858286016131e7565b9150509250929050565b600080fd5b600080fd5b600080fd5b60008083601f840112613316576133156132f1565b5b8235905067ffffffffffffffff811115613333576133326132f6565b5b60208301915083600182028301111561334f5761334e6132fb565b5b9250929050565b6000806020838503121561336d5761336c61304f565b5b600083013567ffffffffffffffff81111561338b5761338a613054565b5b61339785828601613300565b92509250509250929050565b6000806000606084860312156133bc576133bb61304f565b5b60006133ca8682870161329c565b93505060206133db8682870161329c565b92505060406133ec868287016131e7565b9150509250925092565b600080fd5b7f4e487b7100000000000000000000000000000000000000000000000000000000600052604160045260246000fd5b6134338261315a565b810181811067ffffffffffffffff82111715613452576134516133fb565b5b80604052505050565b6000613465613045565b9050613471828261342a565b919050565b600067ffffffffffffffff821115613491576134906133fb565b5b61349a8261315a565b9050602081019050919050565b82818337600083830152505050565b60006134c96134c484613476565b61345b565b9050828152602081018484840111156134e5576134e46133f6565b5b6134f08482856134a7565b509392505050565b600082601f83011261350d5761350c6132f1565b5b813561351d8482602086016134b6565b91505092915050565b60006020828403121561353c5761353b61304f565b5b600082013567ffffffffffffffff81111561355a57613559613054565b5b613566848285016134f8565b91505092915050565b6000602082840312156135855761358461304f565b5b60006135938482850161329c565b91505092915050565b6135a5816131c6565b82525050565b60006020820190506135c0600083018461359c565b92915050565b6135cf816130de565b81146135da57600080fd5b50565b6000813590506135ec816135c6565b92915050565b600080604083850312156136095761360861304f565b5b60006136178582860161329c565b9250506020613628858286016135dd565b9150509250929050565b600067ffffffffffffffff82111561364d5761364c6133fb565b5b6136568261315a565b9050602081019050919050565b600061367661367184613632565b61345b565b905082815260208101848484011115613692576136916133f6565b5b61369d8482856134a7565b509392505050565b600082601f8301126136ba576136b96132f1565b5b81356136ca848260208601613663565b91505092915050565b600080600080608085870312156136ed576136ec61304f565b5b60006136fb8782880161329c565b945050602061370c8782880161329c565b935050604061371d878288016131e7565b925050606085013567ffffffffffffffff81111561373e5761373d613054565b5b61374a878288016136a5565b91505092959194509250565b600080600080604085870312156137705761376f61304f565b5b600085013567ffffffffffffffff81111561378e5761378d613054565b5b61379a87828801613300565b9450945050602085013567ffffffffffffffff8111156137bd576137bc613054565b5b6137c987828801613300565b925092505092959194509250565b600080604083850312156137ee576137ed61304f565b5b60006137fc8582860161329c565b925050602061380d8582860161329c565b9150509250929050565b600081519050919050565b600082825260208201905092915050565b6000819050602082019050919050565b600082825260208201905092915050565b600061385f82613114565b6138698185613843565b9350613879818560208601613130565b6138828161315a565b840191505092915050565b60006138998383613854565b905092915050565b6000602082019050919050565b60006138b982613817565b6138c38185613822565b9350836020820285016138d585613833565b8060005b8581101561391157848403895281516138f2858261388d565b94506138fd836138a1565b925060208a019950506001810190506138d9565b50829750879550505050505092915050565b6000602082019050818103600083015261393d81846138ae565b905092915050565b7f4e487b7100000000000000000000000000000000000000000000000000000000600052602260045260246000fd5b6000600282049050600182168061398c57607f821691505b60208210810361399f5761399e613945565b5b50919050565b7f4552433732313a20617070726f76616c20746f2063757272656e74206f776e6560008201527f7200000000000000000000000000000000000000000000000000000000000000602082015250565b6000613a0160218361311f565b9150613a0c826139a5565b604082019050919050565b60006020820190508181036000830152613a30816139f4565b9050919050565b7f4552433732313a20617070726f76652063616c6c6572206973206e6f7420746f60008201527f6b656e206f776e6572206e6f7220617070726f76656420666f7220616c6c0000602082015250565b6000613a93603e8361311f565b9150613a9e82613a37565b604082019050919050565b60006020820190508181036000830152613ac281613a86565b9050919050565b600081905092915050565b6000613ae08385613ac9565b9350613aed8385846134a7565b82840190509392505050565b6000613b06828486613ad4565b91508190509392505050565b7f4552433732313a2063616c6c6572206973206e6f7420746f6b656e206f776e6560008201527f72206e6f7220617070726f766564000000000000000000000000000000000000602082015250565b6000613b6e602e8361311f565b9150613b7982613b12565b604082019050919050565b60006020820190508181036000830152613b9d81613b61565b9050919050565b600081905092915050565b50565b6000613bbf600083613ba4565b9150613bca82613baf565b600082019050919050565b6000613be082613bb2565b9150819050919050565b7f4661696c656420746f207769746864726177204d617469630000000000000000600082015250565b6000613c2060188361311f565b9150613c2b82613bea565b602082019050919050565b60006020820190508181036000830152613c4f81613c13565b9050919050565b7f4552433732313a20696e76616c696420746f6b656e2049440000000000000000600082015250565b6000613c8c60188361311f565b9150613c9782613c56565b602082019050919050565b60006020820190508181036000830152613cbb81613c7f565b9050919050565b7f4552433732313a2061646472657373207a65726f206973206e6f74206120766160008201527f6c6964206f776e65720000000000000000000000000000000000000000000000602082015250565b6000613d1e60298361311f565b9150613d2982613cc2565b604082019050919050565b60006020820190508181036000830152613d4d81613d11565b9050919050565b600082905092915050565b60008190508160005260206000209050919050565b60006020601f8301049050919050565b600082821b905092915050565b600060088302613dc17fffffffffffffffffffffffffffffffffffffffffffffffffffffffffffffffff82613d84565b613dcb8683613d84565b95508019841693508086168417925050509392505050565b6000819050919050565b6000613e08613e03613dfe846131c6565b613de3565b6131c6565b9050919050565b6000819050919050565b613e2283613ded565b613e36613e2e82613e0f565b848454613d91565b825550505050565b600090565b613e4b613e3e565b613e56818484613e19565b505050565b5b81811015613e7a57613e6f600082613e43565b600181019050613e5c565b5050565b601f821115613ebf57613e9081613d5f565b613e9984613d74565b81016020851015613ea8578190505b613ebc613eb485613d74565b830182613e5b565b50505b505050565b600082821c905092915050565b6000613ee260001984600802613ec4565b1980831691505092915050565b6000613efb8383613ed1565b9150826002028217905092915050565b613f158383613d54565b67ffffffffffffffff811115613f2e57613f2d6133fb565b5b613f388254613974565b613f43828285613e7e565b6000601f831160018114613f725760008415613f60578287013590505b613f6a8582613eef565b865550613fd2565b601f198416613f8086613d5f565b60005b82811015613fa857848901358255600182019150602085019450602081019050613f83565b86831015613fc55784890135613fc1601f891682613ed1565b8355505b6001600288020188555050505b50505050505050565b6000613fe682613114565b613ff08185613ac9565b9350614000818560208601613130565b80840191505092915050565b60006140188285613fdb565b91506140248284613fdb565b91508190509392505050565b600061403c838561311f565b93506140498385846134a7565b6140528361315a565b840190509392505050565b60006020820190508181036000830152614078818486614030565b90509392505050565b7f4e6f7420656e6f756768204d6174696320706169640000000000000000000000600082015250565b60006140b760158361311f565b91506140c282614081565b602082019050919050565b600060208201905081810360008301526140e6816140aa565b9050919050565b7f2e00000000000000000000000000000000000000000000000000000000000000600082015250565b6000614123600183613ac9565b915061412e826140ed565b600182019050919050565b6000815461414681613974565b6141508186613ac9565b9450600182166000811461416b5760018114614180576141b3565b60ff19831686528115158202860193506141b3565b61418985613d5f565b60005b838110156141ab5781548189015260018201915060208101905061418c565b838801955050505b50505092915050565b60006141c9828587613ad4565b91506141d482614116565b91506141e08284614139565b9150819050949350505050565b60006141f98286614139565b91506142058285613fdb565b91506142118284614139565b9150819050949350505050565b7f7b226e616d65223a202200000000000000000000000000000000000000000000600082015250565b6000614254600a83613ac9565b915061425f8261421e565b600a82019050919050565b7f222c20226465736372697074696f6e223a20224120646f6d61696e206f6e207460008201527f6865204e696e6a61206e616d652073657276696365222c2022696d616765223a60208201527f2022646174613a696d6167652f7376672b786d6c3b6261736536342c00000000604082015250565b60006142ec605c83613ac9565b91506142f78261426a565b605c82019050919050565b7f222c226c656e677468223a220000000000000000000000000000000000000000600082015250565b6000614338600c83613ac9565b915061434382614302565b600c82019050919050565b7f227d000000000000000000000000000000000000000000000000000000000000600082015250565b6000614384600283613ac9565b915061438f8261434e565b600282019050919050565b60006143a582614247565b91506143b18286613fdb565b91506143bc826142df565b91506143c88285613fdb565b91506143d38261432b565b91506143df8284613fdb565b91506143ea82614377565b9150819050949350505050565b7f646174613a6170706c69636174696f6e2f6a736f6e3b6261736536342c000000600082015250565b600061442d601d83613ac9565b9150614438826143f7565b601d82019050919050565b600061444e82614420565b915061445a8284613fdb565b915081905092915050565b7f4f776e61626c653a206e6577206f776e657220697320746865207a65726f206160008201527f6464726573730000000000000000000000000000000000000000000000000000602082015250565b60006144c160268361311f565b91506144cc82614465565b604082019050919050565b600060208201905081810360008301526144f0816144b4565b9050919050565b7f4e487b7100000000000000000000000000000000000000000000000000000000600052603260045260246000fd5b7f4e487b7100000000000000000000000000000000000000000000000000000000600052601160045260246000fd5b6000614560826131c6565b91507fffffffffffffffffffffffffffffffffffffffffffffffffffffffffffffffff820361459257614591614526565b5b600182019050919050565b600060408201905081810360008301526145b7818561316b565b905081810360208301526145cb818461316b565b90509392505050565b7f4552433732313a207472616e736665722066726f6d20696e636f72726563742060008201527f6f776e6572000000000000000000000000000000000000000000000000000000602082015250565b600061463060258361311f565b915061463b826145d4565b604082019050919050565b6000602082019050818103600083015261465f81614623565b9050919050565b7f4552433732313a207472616e7366657220746f20746865207a65726f2061646460008201527f7265737300000000000000000000000000000000000000000000000000000000602082015250565b60006146c260248361311f565b91506146cd82614666565b604082019050919050565b600060208201905081810360008301526146f1816146b5565b9050919050565b6000614703826131c6565b915061470e836131c6565b925082820390508181111561472657614725614526565b5b92915050565b6000614737826131c6565b9150614742836131c6565b925082820190508082111561475a57614759614526565b5b92915050565b7f4f776e61626c653a2063616c6c6572206973206e6f7420746865206f776e6572600082015250565b600061479660208361311f565b91506147a182614760565b602082019050919050565b600060208201905081810360008301526147c581614789565b9050919050565b7f4552433732313a20617070726f766520746f2063616c6c657200000000000000600082015250565b600061480260198361311f565b915061480d826147cc565b602082019050919050565b60006020820190508181036000830152614831816147f5565b9050919050565b7f4552433732313a207472616e7366657220746f206e6f6e20455243373231526560008201527f63656976657220696d706c656d656e7465720000000000000000000000000000602082015250565b600061489460328361311f565b915061489f82614838565b604082019050919050565b600060208201905081810360008301526148c381614887565b9050919050565b7f4e487b7100000000000000000000000000000000000000000000000000000000600052601260045260246000fd5b6000614904826131c6565b915061490f836131c6565b92508261491f5761491e6148ca565b5b828204905092915050565b6000614935826131c6565b9150614940836131c6565b9250826149505761494f6148ca565b5b828206905092915050565b60006080820190508181036000830152614975818761316b565b90508181036020830152614989818661316b565b9050818103604083015261499d818561316b565b90506149ac606083018461359c565b95945050505050565b60006149c0826131c6565b91506149cb836131c6565b92508282026149d9816131c6565b915082820484148315176149f0576149ef614526565b5b5092915050565b7f45524337323155524953746f726167653a2055524920736574206f66206e6f6e60008201527f6578697374656e7420746f6b656e000000000000000000000000000000000000602082015250565b6000614a53602e8361311f565b9150614a5e826149f7565b604082019050919050565b60006020820190508181036000830152614a8281614a46565b9050919050565b614a9282613114565b67ffffffffffffffff811115614aab57614aaa6133fb565b5b614ab58254613974565b614ac0828285613e7e565b600060209050601f831160018114614af35760008415614ae1578287015190505b614aeb8582613eef565b865550614b53565b601f198416614b0186613d5f565b60005b82811015614b2957848901518255600182019150602085019450602081019050614b04565b86831015614b465784890151614b42601f891682613ed1565b8355505b6001600288020188555050505b505050505050565b60006060820190508181036000830152614b75818661316b565b9050614b84602083018561359c565b8181036040830152614b96818461316b565b9050949350505050565b600081519050919050565b600082825260208201905092915050565b6000614bc782614ba0565b614bd18185614bab565b9350614be1818560208601613130565b614bea8161315a565b840191505092915050565b6000608082019050614c0a600083018761325b565b614c17602083018661325b565b614c24604083018561359c565b8181036060830152614c368184614bbc565b905095945050505050565b600081519050614c5081613085565b92915050565b600060208284031215614c6c57614c6b61304f565b5b6000614c7a84828501614c41565b91505092915050565b7f4552433732313a206d696e7420746f20746865207a65726f2061646472657373600082015250565b6000614cb960208361311f565b9150614cc482614c83565b602082019050919050565b60006020820190508181036000830152614ce881614cac565b9050919050565b7f4552433732313a20746f6b656e20616c7265616479206d696e74656400000000600082015250565b6000614d25601c8361311f565b9150614d3082614cef565b602082019050919050565b60006020820190508181036000830152614d5481614d18565b905091905056fe0a2d2d2d2d2d2d2d2d2d2d2d2d2d2d2d2d2d2d2d2d2d2d2d2d2d2d2d2d2d2d2d2d2d2d2d2d2d2d2d2d2d2d2d2d2d2d2d2d2d2d2d2d2d2d2d2d5265676973746572696e672025732e2573206f6e2074686520636f6e7472616374207769746820746f6b656e49442025642d2d2d2d2d2d2d2d2d2d2d2d2d2d2d2d2d2d2d2d2d2d2d2d2d2d2d2d2d2d2d2d2d2d2d2d2d2d2d2d2d2d2d2d2d2d2d2d2d2d2d2d2d2d2d2d0a4142434445464748494a4b4c4d4e4f505152535455565758595a6162636465666768696a6b6c6d6e6f707172737475767778797a303132333435363738392b2fa26469706673582212203b336f5b34b01c04b5f00d1dad8fcebdbe7816f9df461ef1470e3c9fd9c8d26464736f6c634300081100333c73766720786d6c6e733d22687474703a2f2f7777772e77332e6f72672f323030302f737667222077696474683d2232373022206865696768743d22323730222066696c6c3d226e6f6e65223e3c706174682066696c6c3d2275726c282342292220643d224d302030683237307632373048307a222f3e3c646566733e3c66696c7465722069643d22412220636f6c6f722d696e746572706f6c6174696f6e2d66696c746572733d2273524742222066696c746572556e6974733d227573657253706163654f6e55736522206865696768743d22323730222077696474683d22323730223e3c666544726f70536861646f772064783d2230222064793d22312220737464446576696174696f6e3d22322220666c6f6f642d6f7061636974793d222e323235222077696474683d223230302522206865696768743d2232303025222f3e3c2f66696c7465723e3c2f646566733e3c7061746820643d224d37322e3836332034322e393439632d2e3636382d2e3338372d312e3432362d2e35392d322e3139372d2e3539732d312e3532392e3230342d322e3139372e35396c2d31302e30383120362e3033322d362e383520332e3933342d31302e30383120362e303332632d2e3636382e3338372d312e3432362e35392d322e3139372e3539732d312e3532392d2e3230342d322e3139372d2e35396c2d382e3031332d342e37323161342e353220342e35322030203020312d312e3538392d312e363136632d2e3338342d2e3636352d2e3539342d312e3431382d2e3630382d322e313837762d392e3331632d2e3031332d2e3737352e3138352d312e3533382e3537322d322e32303861342e323520342e323520302030203120312e3632352d312e3539356c372e3838342d342e3539632e3636382d2e33383720312e3432362d2e353920322e3139372d2e353973312e3532392e32303420322e3139372e35396c372e38383420342e353961342e353220342e353220302030203120312e35383920312e363136632e3338342e3636352e35393420312e3431382e36303820322e31383776362e3033326c362e38352d342e303635762d362e303332632e3031332d2e3737352d2e3138352d312e3533382d2e3537322d322e32303861342e323520342e32352030203020302d312e3632352d312e3539354c34312e3435362032342e3539632d2e3636382d2e3338372d312e3432362d2e35392d322e3139372d2e3539732d312e3532392e3230342d322e3139372e35396c2d31342e38363420382e36353561342e323520342e32352030203020302d312e36323520312e353935632d2e3338372e36372d2e35383520312e3433342d2e35373220322e3230387631372e343431632d2e3031332e3737352e31383520312e3533382e35373220322e32303861342e323520342e323520302030203020312e36323520312e3539356c31342e38363420382e363535632e3636382e33383720312e3432362e353920322e3139372e353973312e3532392d2e32303420322e3139372d2e35396c31302e3038312d352e39303120362e38352d342e3036352031302e3038312d352e393031632e3636382d2e33383720312e3432362d2e353920322e3139372d2e353973312e3532392e32303420322e3139372e35396c372e38383420342e353961342e353220342e353220302030203120312e35383920312e363136632e3338342e3636352e35393420312e3431382e36303820322e31383776392e333131632e3031332e3737352d2e31383520312e3533382d2e35373220322e32303861342e323520342e32352030203020312d312e36323520312e3539356c2d372e38383420342e373231632d2e3636382e3338372d312e3432362e35392d322e3139372e3539732d312e3532392d2e3230342d322e3139372d2e35396c2d372e3838342d342e353961342e353220342e35322030203020312d312e3538392d312e363136632d2e3338352d2e3636352d2e3539342d312e3431382d2e3630382d322e313837762d362e3033326c2d362e383520342e30363576362e303332632d2e3031332e3737352e31383520312e3533382e35373220322e32303861342e323520342e323520302030203020312e36323520312e3539356c31342e38363420382e363535632e3636382e33383720312e3432362e353920322e3139372e353973312e3532392d2e32303420322e3139372d2e35396c31342e3836342d382e363535632e3635372d2e33393420312e3230342d2e393520312e3538392d312e363136732e3539342d312e3431382e3630392d322e3138375635352e353338632e3031332d2e3737352d2e3138352d312e3533382d2e3537322d322e32303861342e323520342e32352030203020302d312e3632352d312e3539356c2d31342e3939332d382e3738367a222066696c6c3d2223666666222f3e3c646566733e3c6c696e6561724772616469656e742069643d2242222078313d2230222079313d2230222078323d22323730222079323d2232373022206772616469656e74556e6974733d227573657253706163654f6e557365223e3c73746f702073746f702d636f6c6f723d2223636235656565222f3e3c73746f70206f66667365743d2231222073746f702d636f6c6f723d2223306364376534222073746f702d6f7061636974793d222e3939222f3e3c2f6c696e6561724772616469656e743e3c2f646566733e3c7465787420783d2233322e352220793d223233312220666f6e742d73697a653d223237222066696c6c3d2223666666222066696c7465723d2275726c282341292220666f6e742d66616d696c793d22506c7573204a616b617274612053616e732c44656a6156752053616e732c4e6f746f20436f6c6f7220456d6f6a692c4170706c6520436f6c6f7220456d6f6a692c73616e732d73657269662220666f6e742d7765696768743d22626f6c64223e",
  "devdoc": {
    "kind": "dev",
    "methods": {
      "approve(address,uint256)": {
        "details": "See {IERC721-approve}."
      },
      "balanceOf(address)": {
        "details": "See {IERC721-balanceOf}."
      },
      "getApproved(uint256)": {
        "details": "See {IERC721-getApproved}."
      },
      "isApprovedForAll(address,address)": {
        "details": "See {IERC721-isApprovedForAll}."
      },
      "name()": {
        "details": "See {IERC721Metadata-name}."
      },
      "owner()": {
        "details": "Returns the address of the current owner."
      },
      "ownerOf(uint256)": {
        "details": "See {IERC721-ownerOf}."
      },
      "renounceOwnership()": {
        "details": "Leaves the contract without owner. It will not be possible to call `onlyOwner` functions anymore. Can only be called by the current owner. NOTE: Renouncing ownership will leave the contract without an owner, thereby removing any functionality that is only available to the owner."
      },
      "safeTransferFrom(address,address,uint256)": {
        "details": "See {IERC721-safeTransferFrom}."
      },
      "safeTransferFrom(address,address,uint256,bytes)": {
        "details": "See {IERC721-safeTransferFrom}."
      },
      "setApprovalForAll(address,bool)": {
        "details": "See {IERC721-setApprovalForAll}."
      },
      "supportsInterface(bytes4)": {
        "details": "See {IERC165-supportsInterface}."
      },
      "symbol()": {
        "details": "See {IERC721Metadata-symbol}."
      },
      "tokenURI(uint256)": {
        "details": "See {IERC721Metadata-tokenURI}."
      },
      "transferFrom(address,address,uint256)": {
        "details": "See {IERC721-transferFrom}."
      },
      "transferOwnership(address)": {
        "details": "Transfers ownership of the contract to a new account (`newOwner`). Can only be called by the current owner."
      }
    },
    "version": 1
  },
  "userdoc": {
    "kind": "user",
    "methods": {},
    "version": 1
  },
  "storageLayout": {
    "storage": [
      {
        "astId": 138,
        "contract": "contracts/Domains.sol:Domains",
        "label": "_name",
        "offset": 0,
        "slot": "0",
        "type": "t_string_storage"
      },
      {
        "astId": 140,
        "contract": "contracts/Domains.sol:Domains",
        "label": "_symbol",
        "offset": 0,
        "slot": "1",
        "type": "t_string_storage"
      },
      {
        "astId": 144,
        "contract": "contracts/Domains.sol:Domains",
        "label": "_owners",
        "offset": 0,
        "slot": "2",
        "type": "t_mapping(t_uint256,t_address)"
      },
      {
        "astId": 148,
        "contract": "contracts/Domains.sol:Domains",
        "label": "_balances",
        "offset": 0,
        "slot": "3",
        "type": "t_mapping(t_address,t_uint256)"
      },
      {
        "astId": 152,
        "contract": "contracts/Domains.sol:Domains",
        "label": "_tokenApprovals",
        "offset": 0,
        "slot": "4",
        "type": "t_mapping(t_uint256,t_address)"
      },
      {
        "astId": 158,
        "contract": "contracts/Domains.sol:Domains",
        "label": "_operatorApprovals",
        "offset": 0,
        "slot": "5",
        "type": "t_mapping(t_address,t_mapping(t_address,t_bool))"
      },
      {
        "astId": 1126,
        "contract": "contracts/Domains.sol:Domains",
        "label": "_tokenURIs",
        "offset": 0,
        "slot": "6",
        "type": "t_mapping(t_uint256,t_string_storage)"
      },
      {
        "astId": 7,
        "contract": "contracts/Domains.sol:Domains",
        "label": "_owner",
        "offset": 0,
        "slot": "7",
        "type": "t_address"
      },
      {
        "astId": 1980,
        "contract": "contracts/Domains.sol:Domains",
        "label": "tld",
        "offset": 0,
        "slot": "8",
        "type": "t_string_storage"
      },
      {
        "astId": 1987,
        "contract": "contracts/Domains.sol:Domains",
        "label": "_tokenIds",
        "offset": 0,
        "slot": "9",
        "type": "t_struct(Counter)1635_storage"
      },
      {
        "astId": 1990,
        "contract": "contracts/Domains.sol:Domains",
        "label": "svgPartOne",
        "offset": 0,
        "slot": "10",
        "type": "t_string_storage"
      },
      {
        "astId": 1993,
        "contract": "contracts/Domains.sol:Domains",
        "label": "svgPartTwo",
        "offset": 0,
        "slot": "11",
        "type": "t_string_storage"
      },
      {
        "astId": 1997,
        "contract": "contracts/Domains.sol:Domains",
        "label": "domains",
        "offset": 0,
        "slot": "12",
        "type": "t_mapping(t_string_memory_ptr,t_address)"
      },
      {
        "astId": 2001,
        "contract": "contracts/Domains.sol:Domains",
        "label": "names",
        "offset": 0,
        "slot": "13",
        "type": "t_mapping(t_uint256,t_string_storage)"
      },
      {
        "astId": 2005,
        "contract": "contracts/Domains.sol:Domains",
        "label": "records",
        "offset": 0,
        "slot": "14",
        "type": "t_mapping(t_string_memory_ptr,t_string_storage)"
      }
    ],
    "types": {
      "t_address": {
        "encoding": "inplace",
        "label": "address",
        "numberOfBytes": "20"
      },
      "t_bool": {
        "encoding": "inplace",
        "label": "bool",
        "numberOfBytes": "1"
      },
      "t_mapping(t_address,t_bool)": {
        "encoding": "mapping",
        "key": "t_address",
        "label": "mapping(address => bool)",
        "numberOfBytes": "32",
        "value": "t_bool"
      },
      "t_mapping(t_address,t_mapping(t_address,t_bool))": {
        "encoding": "mapping",
        "key": "t_address",
        "label": "mapping(address => mapping(address => bool))",
        "numberOfBytes": "32",
        "value": "t_mapping(t_address,t_bool)"
      },
      "t_mapping(t_address,t_uint256)": {
        "encoding": "mapping",
        "key": "t_address",
        "label": "mapping(address => uint256)",
        "numberOfBytes": "32",
        "value": "t_uint256"
      },
      "t_mapping(t_string_memory_ptr,t_address)": {
        "encoding": "mapping",
        "key": "t_string_memory_ptr",
        "label": "mapping(string => address)",
        "numberOfBytes": "32",
        "value": "t_address"
      },
      "t_mapping(t_string_memory_ptr,t_string_storage)": {
        "encoding": "mapping",
        "key": "t_string_memory_ptr",
        "label": "mapping(string => string)",
        "numberOfBytes": "32",
        "value": "t_string_storage"
      },
      "t_mapping(t_uint256,t_address)": {
        "encoding": "mapping",
        "key": "t_uint256",
        "label": "mapping(uint256 => address)",
        "numberOfBytes": "32",
        "value": "t_address"
      },
      "t_mapping(t_uint256,t_string_storage)": {
        "encoding": "mapping",
        "key": "t_uint256",
        "label": "mapping(uint256 => string)",
        "numberOfBytes": "32",
        "value": "t_string_storage"
      },
      "t_string_memory_ptr": {
        "encoding": "bytes",
        "label": "string",
        "numberOfBytes": "32"
      },
      "t_string_storage": {
        "encoding": "bytes",
        "label": "string",
        "numberOfBytes": "32"
      },
      "t_struct(Counter)1635_storage": {
        "encoding": "inplace",
        "label": "struct Counters.Counter",
        "members": [
          {
            "astId": 1634,
            "contract": "contracts/Domains.sol:Domains",
            "label": "_value",
            "offset": 0,
            "slot": "0",
            "type": "t_uint256"
          }
        ],
        "numberOfBytes": "32"
      },
      "t_uint256": {
        "encoding": "inplace",
        "label": "uint256",
        "numberOfBytes": "32"
      }
    }
  }
}